:020000040800F2
:100000009808002099010008BD180008B5180008DC
:10001000B9180008B50500089D1C00080000000084
:10002000000000000000000000000000E9180008C7
:10003000B905000800000000BF180008EB18000810
:10004000B3010008B3010008B3010008B3010008C0
:10005000B3010008B3010008B3010008B3010008B0
:10006000B3010008B3010008B3010008B3010008A0
:10007000B3010008B3010008B3010008B301000890
:10008000B3010008B3010008B3010008B301000880
:10009000B3010008B3010008B3010008B301000870
:1000A000B3010008B3010008B3010008B301000860
:1000B000B3010008B301000800000000B30100080C
:1000C000B30100080000000000000000B3010008B8
:1000D00000000000551C0008791C0008000000000A
:1000E000B3010008B3010008B301000800F002F8F2
:1000F00000F042F80AA090E8000C82448344AAF180
:100100000107DA4501D100F037F8AFF2090EBAE87D
:100110000F0013F0010F18BFFB1A43F0010318473B
:10012000A8270000C8270000103A24BF78C878C16B
:10013000FAD8520724BF30C830C144BF04680C60ED
:10014000704700000023002400250026103A28BF35
:1001500078C1FBD8520728BF30C148BF0B60704739
:10016000642900F0B980732900F0D781002070471E
:100170001FB51FBD10B510BD00F0EAF91146FFF71D
:10018000F7FF02F0D9F900F008FA03B4FFF7F2FF25
:1001900003BC01F0A1FD0000094880470948004761
:1001A000FEE7FEE7FEE7FEE7FEE7FEE7FEE7FEE727
:1001B000FEE7FEE704480549054A064B7047000084
:1001C000F3180008ED0000089802002098080020AD
:1001D0009804002098040020704700000FB40449E0
:1001E00010B503AA029800F09DF910BC5DF814FB4D
:1001F000140000200FB41CB5074B06AA7B446946C7
:100200000090059800F05FF90020694600F06EF953
:100210001CBC5DF814FB0000ED0200002DE9F0416C
:100220000E460446002020622046E168884730B32D
:10023000252805D0D4E901219047206A401CF2E727
:10024000E168204600278847050018D0A5F1410045
:10025000192802D820354FF4006732462946204637
:100260002760FFF77DFF40B1012804D0F61D26F07E
:1002700007060836D8E7361DD6E72846DAE7206AAB
:10028000BDE8F08170B50C460546012A05D02878F6
:10029000800600D5EA69002302E0012305E05B1C2B
:1002A000934202D2E05C0028F9D1A869E618C01A8E
:1002B000A861286A184428622846AFF3008004E049
:1002C000D5E9012114F8010B9047B442F8D3284630
:1002D000AFF3008070BD00002DE9F0410646002418
:1002E00010687529314616A510D0AFF3008000289C
:1002F00002DA404213A507E031688A0701D512A54A
:1003000002E0490704D511A5012401E0AFF3008004
:1003100000210A2206F1240709E0B0FBF2FCB0FB41
:10032000F2F302FB1C00303078541846491C0028B8
:10033000F3D123462A463046BDE8F04100F064B8C8
:10034000000000002D0000002B0000002000000035
:1003500030B505460B462A4613F8014B12F8010B3F
:1003600008B1A042F8D01CB1002802D06D1CF1E702
:10037000284630BD10B5431C02E010F8011B71B1D6
:100380008107FAD14FF0013202C88C1A8C4314EA6B
:10039000C211F9D0C01A0A0603D0C01E10BDC01A7F
:1003A00010BD0A0401D0801E10BD0902FCD0401E01
:1003B00010BD4FF0000200B5134694469646203912
:1003C00022BFA0E80C50A0E80C50B1F12001BFF40E
:1003D000F7AF090728BFA0E80C5048BF0CC05DF874
:1003E00004EB890028BF40F8042B08BF704748BFC2
:1003F00020F8022B11F0804F18BF00F8012B704736
:1004000070477047704770472DE9F0470D46994691
:100410009246044600F124080168880604D5E06984
:1004200021F01001216000E00120A84201DD471BFE
:1004300000E00027A1697A1902EB0900081AA061FF
:100440002078C00602D42046AFF30080002608E0E2
:10045000D4E901211AF806009047206A401C761C56
:1004600020624E45F4DB2078C0060AD52046AFF363
:10047000008006E0D4E9012130209047206A401C2A
:100480002062381EA7F10107F4DC07E0D4E901215E
:1004900018F805009047206A401C2062281EA5F12C
:1004A0000105F3DC2046AFF300802078000602D57A
:1004B0000220BDE8F0870120FBE7000001694A1C2B
:1004C00002610878704700B58FB0CDE90131002195
:1004D000059105497944CDE9031011466846FFF7B7
:1004E0009DFE0FB000BD0000E5FFFFFF0A6802F8A7
:1004F000010B0A60704710B5436913B1AFF3008078
:1005000001E0FFF7BFFE012010BD127800F12401C9
:100510000A7000224A700122EDE711684FF0FF32A5
:10052000E9E70000074B70B50D467B44FFF7CBFFB2
:100530000446284600F008F810B14FF0FF3070BDB7
:10054000204670BD971F0000007B00F080007047C0
:10055000754600F02BF8AE4605006946534620F07C
:100560000700854618B020B5FFF724FEBDE82040FF
:100570004FF000064FF000074FF000084FF0000B5F
:1005800021F00701AC46ACE8C009ACE8C009ACE812
:10059000C009ACE8C0098D46704710B50446AFF3FA
:1005A00000802046BDE81040FFF7EFBD00487047CF
:1005B0003802002000BFFEE770470146002291F894
:1005C0002100022808D00420886300BF002081F8A1
:1005D000200000BF012070470868006820F00E006E
:1005E0000B6818600868006820F001000B6818604C
:1005F00091F8403001209840CB6B5860012081F881
:10060000210000BF002081F8200000BF1046E2E773
:1006100070B50446002594F82100022803D0042078
:10062000A063012548E02068006820F00E002168E2
:1006300008602068006820F00100216808601F49F8
:100640002068884201D1012026E01C49143120682D
:10065000884201D110201FE01849283120688842C3
:1006600001D1801518E015493C312068884201D13C
:10067000801411E0114950312068884202D14FF4B2
:10068000803009E00D4964312068884202D14FF47E
:10069000801001E04FF0807008490839486001205F
:1006A00084F8210000BF002084F8200000BF606BA8
:1006B00010B12046616B8847284670BD0800024093
:1006C0002DE9F84703460022944666E14FF0010801
:1006D00008FA02F4D1F8008008EA0400A0427DD1B3
:1006E000DFF8CCA2D1F80480A8EB0A09D0453AD0B3
:1006F00014DCB8F1030F50D009DCB8F1000F31D091
:10070000B8F1010F1CD0B8F1020F49D120E0B8F1C7
:10071000110F18D0B8F1120F42D11EE0B9F5881FA1
:1007200025D006DCB9F5803F20D0B9F5801F37D140
:100730001AE0B9F5001F18D0B9F5041F30D117E041
:10074000D1F80CC02DE0D1F80C8008F1040C28E0A1
:10075000D1F80C8008F1080C23E0D1F80C8008F1E6
:100760000C0C1EE000BF00BF00BF00BF00BF00BFF9
:10077000D1F80880B8F1000F02D14FF0040C0BE063
:10078000D1F80880B8F1010F03D14FF0080C1C61BB
:1007900002E04FF0080C5C6103E04FF0000C00E059
:1007A00000BF00BFFF2801D8984601E003F104080C
:1007B0004646FF2802D84FEA820803E0A2F1080863
:1007C0004FEA88084746D6F800804FF00F0909FA2B
:1007D00007F928EA09080CFA07F900E085E048EA79
:1007E0000908C6F80080D1F8048008F08058B8F1F4
:1007F000805F7AD100BFDFF8BC81D8F8188048F05C
:100800000108DFF8B091C9F81880C846D8F81880F8
:1008100008F00108CDF8008000BF00BF4FEAB938EA
:100820004FEA920958F829504FEA82784FEA18792E
:100830004FF00F0808FA09F825EA0805DFF8788173
:10084000434502D14FF000080FE0DFF870814345C7
:1008500002D14FF0010808E0DFF86481434502D17E
:100860004FF0020801E04FF003084FEA82794FEAA7
:10087000197908FA09F848EA0505DFF848814FEACE
:10088000920948F82950D1F8048008F48038B8F566
:10089000803F0AD1DFF83081D8F8008048EA0008AC
:1008A000DFF82491C9F8008009E0DFF81C81D8F84E
:1008B000008028EA0008DFF81091C9F80080D1F81C
:1008C000048008F40038B8F5003F0FD1DFF8F88055
:1008D00008F10408D8F8008048EA0008DFF8E8903A
:1008E00009F10409C9F800800EE055E0DFF8D8806E
:1008F00008F10408D8F8008028EA0008DFF8C8905A
:1009000009F10409C9F80080D1F8048008F48018BE
:10091000B8F5801F0ED1DFF8B08008F10808D8F8CC
:10092000008048EA0008DFF8A09009F10809C9F83A
:1009300000800DE0DFF8908008F10808D8F800800A
:1009400028EA0008DFF8809009F10809C9F800805A
:10095000D1F8048008F40018B8F5001F0ED1DFF8B4
:10096000688008F10C08D8F8008048EA0008DFF831
:10097000589009F10C09C9F800800DE0DFF84880B3
:1009800008F10C08D8F8008028EA0008DFF8389051
:1009900009F10C09C9F80080521CD1F8008028FA2E
:1009A00002F8B8F1000F7FF491AEBDE8F8870000BF
:1009B000000011100010024000080140000C01402E
:1009C00000100140080001400004014010B5C26859
:1009D00021EA020302EA010443EA0443036110BD71
:1009E0000AB1016101E00B0403617047014800682E
:1009F00070470000000000200348006803490978A0
:100A000008440149086070470000002008000020E9
:100A100010B50848006840F010000649086003203F
:100A200000F080F80F2000F007F800F02BF800200D
:100A300010BD00000020024070B504460E4800784A
:100A40004FF47A71B1FBF0F00C490968B1FBF0F595
:100A5000284600F0E3FB08B1012070BD102C07D23E
:100A600000222146501E00F01EF80548046001E0F7
:100A70000120F2E70020F0E7080000200C00002031
:100A800004000020704701460846002809DB00F0FA
:100A90001F0301229A4043099B0003F1E023C3F89E
:100AA000002100BF70472DE9F05F80460D461646D5
:100AB000002701F0F5F8074639462A46334601F08B
:100AC0000700C0F1070ABAF1040F02D94FF0040A77
:100AD00001E0C0F1070AD14600F1040ABAF1070F9C
:100AE00002D24FF0000A01E0A0F1030AD4464FF011
:100AF000010A0AFA09FAAAF1010A0AEA020A0AFA3A
:100B00000CFA4FF0010B0BFA0CFBABF1010B0BEAEB
:100B1000030B4AEA0B042146404601F0C9F8BDE840
:100B2000F09F000000BF00F00702064B19684FF667
:100B3000FF031940044B0B4343EA0221014B1960A8
:100B400000BF70470CED00E00000FA0570B50446E8
:100B50000D460CB9012070BD5A48006800F007002E
:100B6000A8420ED25748006820F007002843554994
:100B700008600846006800F00700A84201D0012084
:100B8000E9E7207800F0020002281DD1207800F06B
:100B90000400042805D14C48406840F4E0604A490C
:100BA0004860207800F00800082805D146484068D1
:100BB00040F46050444948604348406820F0F000E9
:100BC000A168084340494860207800F0010078B3EC
:100BD0006068012806D13C48006800F4003090B9F4
:100BE0000120B8E76068022806D13748006800F0A5
:100BF000007040B90120AEE73348006800F0020001
:100C000008B90120A7E73048406820F00300616878
:100C100008432D494860FFF7E9FE064609E0FFF763
:100C2000E5FE801B41F28831884202D9032092E719
:100C300007E02548406800F00C006168B0EB810FC8
:100C4000EDD12048006800F00700A8420ED91D48E9
:100C5000006820F0070028431A4908600846006829
:100C600000F00700A84201D0012074E7207800F0CE
:100C70000400042807D11448406820F4E060E168CB
:100C8000084311494860207800F00800082808D17E
:100C90000D48406820F46050216940EAC1000A49CB
:100CA000486000F03FF808494968C1F30311074A5A
:100CB000515CC8400649086006480068FFF7BCFE62
:100CC000002048E70020024000100240B028000841
:100CD0000C0000200400002001480068704700005C
:100CE0000C00002000B5FFF7F7FF04494968C1F385
:100CF0000221034A515CC84000BD000000100240C0
:100D0000C028000800B5FFF7E7FF04494968C1F3B0
:100D1000C221034A515CC84000BD000000100240DF
:100D2000C0280008F0B585B00FF26C0C9CE8E0100C
:100D300001A8A0E8E0101CA52D6800950021002264
:100D4000002300240020194D696801F00C05F5B15D
:100D5000042D02D0082D19D101E0154819E001AD8C
:100D6000C1F38346AC5D01F4803555B10F4D6D681C
:100D7000C5F340451DF805200D4D6543B5FBF2F365
:100D800002E00C4D04FB05F3184602E000BF0848E2
:100D900000BF00BF05B0F0BD020304050607080947
:100DA0000A0B0C0D0E0F1010010200000010024083
:100DB00000127A0000093D00F8B504460CB9012084
:100DC000F8BD207800F00100002878D0F84840688D
:100DD00000F00C0004280CD0F548406800F00C002E
:100DE000082811D1F248406800F48030B0F5803F07
:100DF0000AD1EF48006800F4003000285FD0606836
:100E000000285CD10120DBE700BF6068B0F5803FBF
:100E100006D1E748006840F48030E549086028E0E2
:100E2000606858B9E248006820F48030E049086002
:100E30000846006820F4802008601AE06068B0F579
:100E4000A02F0BD1DA48006840F48020D849086010
:100E50000846006840F4803008600AE0D448006822
:100E600020F48030D24908600846006820F48020D1
:100E7000086000BF606888B1FFF7B8FD054606E06E
:100E8000FFF7B4FD401B642801D9032098E7C84848
:100E9000006800F400300028F2D010E0FFF7A6FD53
:100EA000054606E0FFF7A2FD401B642801D9032098
:100EB00086E7BF48006800F400300028F2D12078AF
:100EC00000F00200022857D1B948406800F00C0039
:100ED00050B1B748406800F00C00082818D1B44859
:100EE000406800F4803098B9B148006800F0020012
:100EF00020B12069012801D0012061E7AC480068D9
:100F000020F0F800616940EAC100A949086033E0B7
:100F10002069E8B10120A7490860FFF767FD054691
:100F200006E0FFF763FD401B022801D9032047E7D5
:100F30009F48006800F002000028F2D09C4800683A
:100F400020F0F800616940EAC1009949086013E0A7
:100F5000002098490860FFF749FD054606E0FFF7C5
:100F600045FD401B022801D9032029E7904800686D
:100F700000F002000028F2D1207800F008000828D4
:100F80002DD1A069B8B101208B490860FFF72EFD73
:100F9000054606E0FFF72AFD401B022801D9032081
:100FA0000EE78348406A00F002000028F2D00120DA
:100FB00000F086FC13E000207F490860FFF716FD73
:100FC000054606E0FFF712FD401B022801D9032069
:100FD000F6E67748406A00F002000028F2D1207857
:100FE00000F00400042873D100277148C06900F0A4
:100FF000805070B900BF6E48C06940F080506C49A5
:10100000C8610846C06900F08050009000BF00BF72
:1010100001276A48006800F48070B0B9674800682A
:1010200040F4807065490860FFF7E0FC054606E083
:10103000FFF7DCFC401B642801D90320C0E65F48B1
:10104000006800F480700028F2D000BFE06801283A
:1010500006D15748006A40F001005549086227E070
:10106000E06858B95248006A20F00100504908620F
:101070000846006A20F00400086219E0E0680528CC
:101080000BD14B48006A40F0040049490862084609
:10109000006A40F0010008620AE04548006A20F05A
:1010A0000100434908620846006A20F00400086213
:1010B00000BFE068A0B1FFF799FC054609E0FFF723
:1010C00095FC401B41F28831884202D9032077E623
:1010D00022E03748006A00F002000028EFD012E05A
:1010E000FFF784FC054608E0FFF780FC401B41F257
:1010F0008831884201D9032062E62D48006A00F059
:1011000002000028F0D1012F05D12948C06920F044
:1011100080502749C86100BFE069C8B324484068CF
:1011200000F00C00082860D0E069022848D10020B7
:1011300020490866FFF75AFC054606E0FFF756FC13
:10114000401B022801D903203AE61948006800F044
:1011500000700028F2D1206AB0F5803F07D1144812
:10116000406820F40030A168084311494860D4E980
:10117000080108430E49496821F4741108430C49D9
:10118000486001200B490866FFF730FC054607E080
:101190003DE0FFF72BFC401B022801D903200FE69E
:1011A0000348006800F000700028F2D02FE0000033
:1011B00000100240000042428004424200700040A1
:1011C000002014490866FFF711FC054606E0FFF70A
:1011D0000DFC401B022801D90320F1E50E480068F0
:1011E00000F000700028F2D111E0E069012800D180
:1011F000E6E50948466806F48031206A814204D158
:1012000006F47011606A814201D00120D8E5002007
:10121000D6E50000000042420010024070B50446CE
:101220002546681EB0F1807F01D301200FE0681EC3
:101230004FF0E02148610F214FF0FF3000F038FD02
:1012400000204FF0E021886107200861002070BD78
:10125000704770472DE9F84F0446206805682068FC
:10126000C668206847694FF00009CA4605F00F09B3
:10127000B9F1000F0AD105F0200038B106F02000C6
:1012800020B1204600F06BFBBDE8F88FB9F1000FEC
:1012900071D007F0010018B906F4907000286AD0E8
:1012A00005F0010030B106F4807018B1206C40F0F8
:1012B0000100206405F0040030B107F0010018B10E
:1012C000206C40F00200206405F0020030B107F00D
:1012D000010018B1206C40F00400206405F0080003
:1012E00048B106F0200010B907F0010018B1206CD9
:1012F00040F008002064206C68B305F0200028B19D
:1013000006F0200010B1204600F029FB206840695B
:10131000C0F3801A206C00F0080010B9BAF1000F79
:1013200022D0204600F0F0FA2068406900F040002A
:10133000B0B12068406920F0400021684861A06B8E
:1013400050B15648A16B4863A06BFFF761F910B12B
:10135000A06B416B88470CE02046FFF77AFF08E05E
:101360002046FFF776FF04E02046FFF772FF0020DB
:10137000206489E7FFE7206B012878D105F0100091
:10138000002874D006F01000002870D000BF0020A4
:10139000009020680068009020684068009000BFBE
:1013A00000BF2068406900F04000C0B3A06B006837
:1013B00040681FFA80F8B8F1000F2FD0A08D40458B
:1013C0002CDDA4F82E80A06B806920281FD0206817
:1013D000C06820F480702168C8602068406920F0EF
:1013E0000100216848612068406920F040002168C0
:1013F0004861202084F83E00002020632068C068F7
:1014000020F010002168C860A06BFFF7D6F8A08D0F
:10141000E28D801A81B22046FFF71AFF34E7FFE71A
:10142000A08DE18D401A1FFA80F8E08DE8B1B8F187
:10143000000F1AD02068C06820F490702168C8603E
:101440002068406920F0010021684861202084F86C
:101450003E00002020632068C06820F01000216852
:10146000C86041462046FFF7F3FE0DE7FFE705F0B1
:10147000800030B106F0800018B1204600F083FBF8
:1014800002E705F0400030B106F0400018B12046F8
:1014900000F055FAF8E600BFF6E60000F51800087F
:1014A00010B504460CB9012010BDA06900B100E0E0
:1014B00000BF94F83D0028B9002084F83C00204685
:1014C00000F028F8242084F83D002068C06820F44B
:1014D00000502168C860204600F0B4FA2068006916
:1014E00020F49040216808612068406920F02A00BB
:1014F000216848612068C06840F400502168C860D5
:1015000000202064202084F83D0084F83E00002064
:10151000CAE7000010B586B00446504920688842EA
:101520004BD100BF00BF4E48806940F004004C49D9
:1015300088610846806900F00400019000BF00BF88
:1015400000BF00BF00BF0846806940F0040088610A
:101550000846806900F00400019000BF00BF00BF92
:1015600000BF00BF0846806940F48040886108469B
:10157000806900F48040019000BF00BF00BF4815A3
:10158000029002200390012004900320059002A9FC
:101590003448FFF795F84FF48060029000200390E4
:1015A00002A93048FFF78CF82520FFF76CFA0322D8
:1015B00011462520FFF777FA4DE02B492068884235
:1015C00049D100BF00BF2648806940F0040024498B
:1015D00088610846806900F00400019000BF00BFE8
:1015E00000BF00BF00BF0846806940F0040088616A
:1015F0000846806900F00400019000BF00BF00BFF2
:1016000000BF00BF0846C06940F40030C86108460A
:10161000C06900F40030019000BF00BF00BF04208B
:10162000029002200390012004900320059002A95B
:101630000C48FFF745F8082002900020039002A90B
:101640000848FFF73DF82620FFF71DFA0322114650
:101650002620FFF728FA06B010BD00000038014030
:1016600000100240000801400044004070B50446EC
:101670000D46164694F83E00202816D105B10EB945
:10168000012070BD00BF94F83C00012801D1022068
:10169000F7E7012084F83C0000BF002020633246B9
:1016A0002946204600F04CFAEBE70220E9E700006B
:1016B000434A0168914238D14249098801F4004106
:1016C00000297CD13F49098801F4804171B13E492C
:1016D00009780A2903D000213A4A11806FE039497C
:1016E000098841F40041374A118068E03649097899
:1016F0000D2906D13349098841F48041314A1180CE
:101700005DE0314909782F4A1288C2F30D022F4B50
:1017100099542C490988491C2A4A11801146098884
:10172000C7294CDD0021118049E0294A0168914216
:1017300045D12849098801F4004109BB2549098898
:1017400001F48041E9B1244909780A2903D0002134
:10175000204A118033E01F490988C1F30D0119B9EE
:1017600000211C4A11802AE01A49098841F40041ED
:10177000184A118000211288C2F30D02174B9954A8
:101780001DE0154909780D2906D11249098841F44F
:101790008041104A118012E00F4909780D4A1288E1
:1017A000C2F30D020D4B99540A490988491C094A94
:1017B000118011460988C72901DD00211180704779
:1017C00000380140180000201A00002020000020EE
:1017D000004400401C0000201E0000202C010020BE
:1017E0002DE9F84F04460E46174699464FF0000A79
:1017F00094F83D0020285AD106B117B90120BDE860
:10180000F88F00BF94F83C00012801D10220F6E7D0
:10181000012084F83C0000BF00202064212084F8CF
:101820003D00FFF7E3F88246A784E784A068B0F59F
:10183000805F04D1206910B90025B04602E035462A
:101840004FF0000800BF002084F83C0000BF1BE000
:101850005346002280212046CDF8009000F0C3F9C5
:1018600008B10320CBE745B9B8F80000C0F3080081
:101870002168486008F1020803E028782168486080
:101880006D1CE08C401EE084E08C0028E0D15346C3
:10189000002240212046CDF8009000F0A4F908B1C4
:1018A0000320ACE7202084F83D000020A7E70220B9
:1018B000A5E7704700BFFEE700BFFEE7704770472F
:1018C00008B508490968C9084FF47A72B1FBF2F10A
:1018D0004143009100BF00BF00994A1E00920029B9
:1018E000F9D108BD0C000020704710B5FFF784F84F
:1018F00010BD704770B505466C6A0020E085E08435
:101900002046FFF7A6FC70BD0168C96821F49071FC
:101910000268D1600168496921F0010102685161E2
:10192000016B012905D10168C96821F01001026825
:10193000D160202180F83E1000210163704710B56E
:1019400004462068C06820F040002168C86020205C
:1019500084F83D002046FFF7ACFF002010BDF8B52D
:10196000044694F83E00222869D1A068B0F5805F53
:101970000CD1206950B90025A66A20684068C0F3E0
:1019800008003080A06A801CA06215E0A56A0026CD
:10199000A068B0F5805F03D0A06828B9206918B9A5
:1019A00020684068287004E02068406800F07F00EC
:1019B0002870A06A401CA062E08D401E80B2E085C5
:1019C000A8BB2068C06820F020002168C86020689B
:1019D000C06820F480702168C8602068406920F0E9
:1019E000010021684861202084F83E00206B012816
:1019F0001ED1002020632068C06820F010002168FC
:101A0000C8602068006800F0100010280AD100BFEC
:101A100000200090206800680090206840680090D6
:101A200000BF00BFA18D2046FFF712FC03E004E0D9
:101A30002046FFF73DFE0020F8BD0020FCE7022015
:101A4000FAE7000070B504462168096921F44051A5
:101A5000E2681143226811612269A1681143626939
:101A600041EA02052168C96841F20C6291432943A9
:101A70002268D1602168496921F44071A26911434B
:101A8000226851612D4A2168914202D1FFF73AF94B
:101A900001E0FFF727F900EBC00101EB00116268DC
:101AA0009200B1FBF2F100EBC00202EB001263689E
:101AB0009B00B2FBF3F26423B2FBF3F202EBC2032E
:101AC00003EB0212A1EB8201322202EB011164222C
:101AD000B1FBF2F101F0F00100EBC00202EB0012E9
:101AE00063689B00B2FBF3F26423B2FBF3F201EBF9
:101AF000021200EBC00101EB001163689B00B1FB17
:101B0000F3F100EBC00303EB00136668B600B3FB10
:101B1000F6F36426B3FBF6F303EBC30606EB0313FD
:101B2000A1EB8301322303EB01116423B1FBF3F139
:101B300001F00F0111442268916070BD003801402E
:101B400010B5034699629A85DA8500201864222030
:101B500083F83E0000BF002083F83C0000BF1868F7
:101B6000C06840F480701C68E0601868406940F00C
:101B700001001C6860611868C06840F020001C68A3
:101B8000E060002010BD014691F83D00212828D1D9
:101B90008868B0F5805F0BD1086948B90A6A108877
:101BA000C0F308000B685860086A801C086205E0F2
:101BB0000B6A581C086218780B685860C88C401E65
:101BC00080B2C88458B90868C06820F080000B68EB
:101BD000D8600868C06840F040000B68D8600020FA
:101BE00070470220FCE72DE9F04104460D461746F8
:101BF0009846069E21E0701CF8B12EB1FEF7F6FE65
:101C0000A0EB0800B04218D92068C06820F4D0705A
:101C10002168C8602068406920F00100216848619F
:101C2000202084F83D0084F83E0000BF002084F8A6
:101C30003C0000BF0320BDE8F08120680068284018
:101C4000A84201D1012000E00020B842D3D00020FA
:101C5000F1E7000010B50648FFF7FCFA00BF0122CB
:101C600004490348FFF702FD0028F8D110BD000029
:101C7000E80000201A00002010B50648FFF7EAFA35
:101C800000BF012204490348FFF7F0FC0028F8D107
:101C900010BD0000F40100201E00002000BFFEE780
:101CA00002480068C0F30220704700000CED00E01D
:101CB00010B5002804DB0A07130E054A135406E08A
:101CC0000A07140E034A00F00F031B1FD45410BD63
:101CD00000E400E018ED00E000BF70470149086033
:101CE000704700001000002010B504464FF47A71D0
:101CF00004FB01F000F002F810BD000070B50346CF
:101D000000224FF0E02675690D4E366803FB06F49D
:101D10004FF0E026B16910E04FF0E026B06988424C
:101D20000BD0884202D20E1A324402E02E1A0E4420
:101D300032440146A24200D300E0EDE700BF70BD8F
:101D400010000020F0B5B5B006460F46002401256E
:101D5000A5480670A5A0FEF741FA00F0DBFAC822FC
:101D60000021ACA000F000FBC8220021ABA000F0D5
:101D7000FBFA384600F076FB012F26D1ABA3ABA2CD
:101D8000ADA103A8FEF736FA00BFB0A0FEF726FA11
:101D900000BF40F6B832B3A103A800F0E5FA05464B
:101DA0006DB9601CC4B24FF47A70FFF79DFF052C2B
:101DB00005D1ADA0FEF712FA002035B0F0BD012D1F
:101DC000E7D1AFA0FEF70AFA28E004200121B2A370
:101DD000B4A2CDE90010B5A103A8FEF70BFA0024C8
:101DE000B9A0FEF7FBF900BF40F6B8329DA103A8E9
:101DF00000F0BAFA054665B9601CC4B24FF47A70B7
:101E0000FFF772FF052C04D1B5A0FEF7E7F900201B
:101E1000D3E7012DE8D1B8A0FEF7E0F9012E2DD1CE
:101E2000002000F0F9FAC8220021B9A000F09CFAC5
:101E3000BAA3BCA2BFA103A8FEF7DCF90024C4A08A
:101E4000FEF7CCF900BF40F6B832C9A103A800F0F4
:101E50008BFA054665B9601CC4B24FF47A70FFF77F
:101E600043FF052C04D1C5A0FEF7B8F90020A4E774
:101E7000012DE8D1C9A0FEF7B1F9B2E0022E31D1AF
:101E8000002000F0C9FAC8220021A1A000F06CFADD
:101E90000220CAA1A1A3CBA2CDE90010CDA103A825
:101EA000FEF7A8F90024AAA0FEF798F900BF40F6B3
:101EB000B832AFA103A800F057FA054665B9601C17
:101EC000C4B24FF47A70FFF70FFF052C04D1ABA01A
:101ED000FEF784F9002070E7012DE8D1AFA0FEF7EE
:101EE0007DF97EE0032E2DD1C822002188A000F0CC
:101EF0003BFA8AA38BA28FA103A8FEF77BF90024EB
:101F000093A0FEF76BF900BF40F6B83298A103A882
:101F100000F02AFA054665B9601CC4B24FF47A7025
:101F2000FFF7E2FE052C04D194A0FEF757F900203C
:101F300043E7012DE8D199A0FEF750F9012000F008
:101F40006BFA4EE0042E2ED1C822002170A000F0C2
:101F50000BFA022099A171A39AA2CDE900109DA1CC
:101F600003A8FEF747F9002479A0FEF737F900BF70
:101F700040F6B8327EA103A800F0F6F9054665B92F
:101F8000601CC4B24FF47A70FFF7AEFE052C04D18A
:101F90007AA0FEF723F900200FE7012DE8D10120F8
:101FA00000F03AFA1DE0052E1BD1002000F034FAB3
:101FB000C82200218FA000F0D7F991A293A103A815
:101FC000FEF718F9C822002103A800F0CDF993A26A
:101FD00094A103A8FEF70EF9C822002103A800F07F
:101FE000C3F90120E9E600001F0000200D0A455357
:101FF000503832363677696669E6A8A1E59D97E6DE
:10200000ADA3E59CA8E5889DE5A78BE58C965C7261
:102010000A000000415445300000000041542B43A9
:10202000495044494E464F3D30000000393231316D
:10203000393231310000000041542B43574A41509E
:102040003D222573222C2225732200000D0AE6ADC5
:10205000A3E59CA8E8BF9EE68EA5574946492E2ECB
:102060002E0D0A004F4B00000D0AE8BF9EE68EA51C
:1020700057494649E5A4B1E8B4A50D0A000000009F
:102080000D0A57494649E8BF9EE68EA5E68890E5C9
:102090008A9F0D0A0000000031323334353637385C
:1020A000000000004E6944696500000041542B4364
:1020B000575341503D222573222C222573222C2573
:1020C000642C2564000000000D0AE6ADA3E59CA881
:1020D000E9858DE7BDAE574946492E2E2E0D0A00E3
:1020E0000D0AE9858DE7BDAE57494649E5A4B1E83B
:1020F000B4A50D0A000000000D0AE8AEBEE7BDAEB3
:1021000057494649E68890E58A9F0D0A000000007D
:1021100041542B4349504D55583D300038303831EB
:10212000000000003139322E3136382E312E313157
:102130003100000041542B43495053544152543D07
:1021400022544350222C222573222C257300000098
:102150000D0AE6ADA3E59CA8E8BF9EE68EA5E69C29
:102160008DE58AA1E599A82E2E2E0D0A000000000B
:10217000434F4E4E45435445440000000D0AE8BF0E
:102180009EE68EA5E588B0E69C8DE58AA1E599A836
:10219000E5A4B1E8B4A50D0A000000000D0AE68828
:1021A00090E58A9FE8BF9EE68EA5E588B0E69C8D07
:1021B000E58AA1E599A80D0A00000000313131320D
:1021C000000000003139322E3136382E312E3131B7
:1021D0003300000041542B43495053544152543D65
:1021E00022554450222C222573222C25732C257332
:1021F0002C25640041542B4349504D55583D310026
:102200003139322E3136382E342E310041542B43A1
:10221000495041503D2225732200000038303830AB
:102220000000000041542B4349505345525645523B
:102230003D312C25730000002DE9F043B3B08046FA
:102240000C464FF00009052516480778032F01D0EA
:10225000042F05D1224614A14046FDF7CBFF1DE017
:10226000052F01D194F8059001E0681CC5B2605DAE
:102270003A28FAD1681CC5B206E0605D01A988550C
:10228000681CC5B2701CC6B2605D0028F5D101A9FA
:10229000885501AA04A14046FDF7ACFF484633B07B
:1022A000BDE8F0831F000020257300002DE9F041F8
:1022B00005460E46012711480478062C19D2DFE89E
:1022C00004F01803080D0E12284600F0EDF9074639
:1022D00010E0284600F012FA07460BE000BF28463F
:1022E00000F036FA06E03146284600F037FA074695
:1022F00000E000BF00BF3846BDE8F0811F000020AD
:1023000070B504460D4621462846FEF721F80546DD
:10231000284670BD10B508A0FDF760FFC822002157
:102320000AA000F021F84FF47A70FFF7DDFC0AA054
:10233000FDF754FF10BD0000E6ADA3E59CA8E5A4A1
:102340008DE4BD8D2E2E2E0A0000000041542B522C
:102350004553544F52450000E5A48DE4BD8DE5AED4
:102360008CE688900A0000002DE9F041E4B00646B2
:102370000D4614460027A04600201B49088032461F
:102380001AA16846FDF736FF684600F065FA00BFFF
:102390001848006800F040000028F9D0FCB11BE0AC
:1023A0000120FFF7A1FC1048008800F4004098B11C
:1023B0004446114A11A132A8FDF71CFF4DB132A9C4
:1023C0002846FFF79DFF20B1012729460CA0FDF705
:1023D00005FF002004490880601E041EE0D1384635
:1023E00064B0BDE8F08100001C00002025730D0AD8
:1023F00000000000004400402C0100202573000074
:10240000E6A8A1E59D97E5BA94E7AD94E6ADA3E70C
:10241000A1AE3A2025730A0010B5044614B1012C70
:102420000CD105E0C822002106A0FFF79DFF06E0C1
:10243000C822002107A0FFF797FF00E000BF00BF00
:1024400010BD000041542B4349504D4F44453D3091
:102450000000000041542B4349504D4F44453D314D
:102460000000000010B50446012C04D0022C08D056
:10247000032C12D10BE0C822002109A0FFF774FF42
:102480000CE0C822002109A0FFF76EFF06E0C82279
:10249000002109A0FFF768FF00E000BF00BF10BDEA
:1024A00041542B43574D4F44453D310041542B433C
:1024B000574D4F44453D320041542B43574D4F44F7
:1024C000453D330000BF054A126802F04002002A71
:1024D000F9D0C2B2014B1B1D1A6070470038014091
:1024E00000B585B000BF00BF1148806940F0100002
:1024F0000F4988610846806900F01000009000BF15
:1025000000BF00BF4FF400500190012002900390E3
:102510000320049001A90748FEF7D2F800BF01226A
:1025200051030448FEF75CFA00BF05B000BD00008F
:102530000010024000100140A0B0FEF769FA4FF40D
:10254000E01000F039F94820FFF7C8FB4FF4E13004
:1025500000F092F9FFF7C4FF4FF4E13000F060F9AA
:1025600001210846FFF7EEFB012804D1012127A035
:10257000FDF734FE0EE02FA0FDF730FE09E000BFAE
:102580004FF400513248FEF721FA00BFC820FFF790
:10259000ABFBF4E7002438E02E48008800F400404C
:1025A000A8B12DA0FDF71AFE2E496846FFF744FE9C
:1025B00004462CB16A4621462BA0FDF70FFE03E02E
:1025C000694630A0FDF70AFE002022490880334802
:1025D000008800F4004068B100BF3148006800F096
:1025E00040000028F9D021462E48FFF75FFE00206A
:1025F0002A49088000BF4FF400511548FEF7E6F95C
:1026000000BF4FF4FA70FFF76FFBC5E70D0A657363
:10261000703832363620E6A8A1E5BC8F202564202C
:10262000E5889DE5A78BE58C96E5AE8CE688902144
:102630000D0A00000D0A65737038323636E5889D44
:10264000E5A78BE58C96E5A4B1E8B4A55C720A0019
:10265000001001401C0000200A476F742044617480
:1026600065210A002C0100204944203A25642CE60B
:1026700094B6E588B0E79A84E4BFA1E681AF3A203A
:1026800025730A00E694B6E588B0E79A84E4BFA112
:10269000E681AF3A2025730A0000000018000020F0
:1026A000003801402000002070B586B004460125A6
:1026B0002046FDF75FFE861C324609A101A8FDF702
:1026C00099FDC8220AA101A8FFF74EFE40F6B832D4
:1026D00008A12046FFF748FE0546284606B070BD13
:1026E00041542B43495053454E443D25640000005E
:1026F0003E00000053454E44204F4B0070B5B2B031
:10270000044601252046FDF735FE861C324609A108
:102710006846FDF76FFDC8220AA16846FFF724FE50
:1027200040F6B83208A12046FFF71EFE05462846AF
:1027300032B070BD41542B43495053454E443D2562
:10274000640000003E00000053454E44204F4B0003
:1027500010B50446204600F07FF810BDF0B5B3B0C8
:1027600005460C4601262846FDF704FE871C3B461D
:10277000224609A101A8FDF73DFDC8220BA101A831
:10278000FFF7F2FD40F6B83209A12846FFF7ECFD4D
:102790000646304633B0F0BD41542B4349505345B3
:1027A0004E443D25642C2564000000003E000000DE
:1027B00053454E44204F4B0030B58FB005460124A1
:1027C000282105A8FDF7F5FD14216846FDF7F1FD68
:1027D00001200590000406900020079002200C9034
:1027E000C1030D910E9505A8FEF7E6FA04460CB15B
:1027F00000BFFEE70F200090022001900020029011
:102800004FF4806003900020049002216846FEF798
:102810009DF904460CB100BFFEE70FB030BD0000CB
:1028200010B5044609480A4908600846446000217A
:102830008160C160016181610C214161FEF730FE60
:10284000012204490248FEF711FF10BD0044004078
:10285000F40100201E00002070B504462046FDF75C
:1028600089FD85B24FF6FF732A4621460148FEF7DF
:10287000B7FF70BDF401002010B5044609480A49AD
:1028800008600846446000218160C1600161816187
:102890000C214161FEF704FE012204490248FEF7C3
:1028A000E5FE10BD00380140E80000201A000020BD
:1028B00000000000000000000102030406070809F0
:1028C0000000000001020304E828000800000020C6
:1028D000200000002801000808290008200000202E
:1028E000780800004401000800000000100000000B
:1028F000010000000024F4000000000000000000BF
:082900000000000000000000CF
:04000005080000ED02
:00000001FF
